:020000040800F2
:10000000705900200103000891660008315800086B
:100010008D6600088D180008A57900080000000012
:100020000000000000000000000000002174000833
:10003000B91F000800000000B173000871760008C5
:100040001B0300081B0300081B0300081B03000818
:100050001B0300081B030008BD1F00081B0300084A
:100060001B0300081B0300081B0300081B030008F8
:100070001B0300081B0300081B0300081B030008E8
:100080001B0300081B0300081B0300081B030008D8
:10009000911800081B0300081B0300081B0300083D
:1000A0001B0300081B0300081B0300081B030008B8
:1000B0001B0300081B0300081B0300081B030008A8
:1000C0001B0300081B0300081B0300081B03000898
:1000D0001B0300081B0300081B0300081B03000888
:1000E0001B0300081B0300081B0300081B03000878
:1000F0001B0300085D7700081B0300081B030008B2
:100100001B0300081B0300081B0300081B03000857
:100110001B0300081B030008517700081B0300089D
:10012000951F0008A11F0008AD1F00081B03000851
:100130001B0300081B0300081B0300081B03000827
:100140001B0300081B0300081B0300081B03000817
:100150001B0300081B0300081B0300081B03000807
:100160001B0300081B0300081B0300081B030008F7
:100170001B0300081B0300081B030008000000000D
:100180001B0300081B03000800F002F800F0A8F8A9
:1001900014A696E8000CB244B344DA4501D100F04D
:1001A0009FF8BAE80F000FA696E83000A5EB04050B
:1001B00004EB0607AAEB0704A7F101074FEA1515A0
:1001C0004FEA3414A4F10104AC4201D300F088F8E2
:1001D00013F0010F18BFFB1A43F0010300F001F800
:1001E000DBE7184790BB0000B0BB0000103A24BF0B
:1001F00078C878C1FAD8520724BF30C830C144BF8C
:1002000004680C6070470000704700000023002461
:1002100000250026103A28BF78C1FBD8520728BF16
:1002200030C148BF0B6070476E2900F053827029BF
:1002300000F0978366290AF0C88665290AF0C5860A
:1002400067290AF0C28661290AF0C18603681B0A81
:1002500028BF41F08001692900F00082642900F084
:10026000FD81752900F0FA816F2900F02583782936
:1002700000F06383E92900F0BF82E42900F0BC822A
:10028000F52900F0B982EF2900F02283F82900F067
:1002900062830368DB0928BF41F08001632901F014
:1002A0009580732901F09A80E32901F0A580F32954
:1002B00001F0AA80002070471FB50AF079FE01F016
:1002C000F9F80400002000210AF05CFE401C606088
:1002D000002000210AF040FEE0601FBD10B510BDF7
:1002E00001F0BAF81146FFF7E7FF07F08DFB01F0C8
:1002F00097F903B4FFF7F2FF03BC01F0DFF9000048
:100300000948804709480047FEE7FEE7FEE7FEE7A9
:10031000FEE7FEE7FEE7FEE7FEE7FEE704480549E5
:10032000054A064B704700003D7700088901000828
:100330007053002070590020705500207055002027
:1003400053EA020C00F069802DE9F04B4FF00006F3
:10035000002B1FBFB3FA83F503FA05F424FA05F660
:100360005E4012BF1643B2FA82F502FA05F4C5F1F7
:1003700020051EBF22FA05FC44EA0C04203556EA8B
:10038000044C4FEA144418BF641C4FF000084FF0AF
:100390000009904271EB030C39D3002919BFB1FA5F
:1003A00081F701FA07F6B0FA80F700FA07F6C7F10D
:1003B00020071EBF20FA07FC46EA0C062037B6FBD2
:1003C000F4FCA7EB0507103F07F01F0BCBF120064D
:1003D0002CFA06F60CFA0BFB44BFB3460026202F7E
:1003E000A4BF5E464FF0000B5BEA060C08BF4FF05F
:1003F000010B19EB0B0948EB0608ABFB027C06FB73
:1004000002CC0BFB03CCC01B71EB0C01C1E70B460C
:10041000024641464846BDE8F08B13B5084318BF75
:100420004FF0FF300146AFF30080BDE81C4070473D
:100430007CB51D4616460C00009007D04142A142F3
:1004400002D32044401E01E04FF0FF30064B7B44B6
:100450002A4669460190304600F055F9002C02D03A
:10046000009A002111707CBDDB02000010B5431C16
:1004700002E010F8011B71B18107FAD14FF001328F
:1004800002C88C1A8C4314EAC211F9D0C01A0A06A9
:1004900003D0C01E10BDC01A10BD0A0401D0801EBA
:1004A00010BD0902FCD0401E10BD032A40F230806E
:1004B00010F0030C00F0158011F8013BBCF1020FA5
:1004C000624498BF11F801CB00F8013B38BF11F826
:1004D000013BA2F1040298BF00F801CB38BF00F83D
:1004E000013B11F0030300F00B83083AC0F00880D1
:1004F00051F8043B083A51F804CBA0E80810F5E79E
:10050000121D5CBF51F8043B40F8043BAFF3008080
:10051000D20724BF11F8013B11F801CB48BF11F8F5
:10052000012B24BF00F8013B00F801CB48BF00F8C5
:10053000012B704702F0FF0343EA032242EA024222
:1005400000F002B84FF0000200B5134694469646FC
:10055000203922BFA0E80C50A0E80C50B1F12001D6
:10056000BFF4F7AF090728BFA0E80C5048BF0CC084
:100570005DF804EB890028BF40F8042B08BF7047E2
:1005800048BF20F8022B11F0804F18BF00F8012B54
:10059000704770477047704770B5044685690068BA
:1005A000C10601D5302600E02026C00707D070BD67
:1005B000D4E9012130469047206A401C20626D1E1C
:1005C000F6D570BD70B5044685690078C00707D1BF
:1005D00070BDD4E9012120209047206A401C206290
:1005E0006D1EF6D570BD09684A0501D540B2704749
:1005F000C905FCD500B2704709684A0501D5C0B2EB
:100600007047C905FCD580B2704770B50C460546E9
:10061000012A05D02878800600D5EA69002302E087
:10062000012305E05B1C934202D2E05C0028F9D173
:10063000A869E618C01AA861286A184428622846E2
:10064000FFF7AAFF04E0D5E9012114F8010B904758
:10065000B442F8D32846FFF7B5FF70BD2DE9F0414D
:100660000646002410687529314616A510D0FFF7FC
:10067000BAFF002802DA404213A507E031688A0772
:1006800001D512A502E0490704D511A5012401E016
:10069000FFF7B2FF00210A2206F1240709E0B0FBB0
:1006A000F2FCB0FBF2F302FB1C0030307854184629
:1006B000491C0028F3D123462A463046BDE8F041C4
:1006C00000F095BA000000002D0000002B00000093
:1006D0002000000011680268006A530501D5087007
:1006E0000AE0D30501D5088006E0130603D5C2173A
:1006F000C1E9000200E008600120704701694A1C5E
:1007000002610878704700B58FB0CDE90131002152
:10071000059105497944CDE903101146684600F07A
:100720002BF90FB000BD0000E5FFFFFFD1E900236A
:100730009A4202D2531C0B60107070472DE9FF5F84
:1007400015468A460446DFF8AC80F8440027D8E90D
:1007500000103E46CDE9001010E03AF816106A4647
:1007600002A800F055FE411C07D02178890603D568
:10077000E269391891420DD80744761C207880062A
:1007800002D5E069B84205DDAE42E6DB3AF8160074
:100790000028E2D1A069C01BA0612046FFF7FCFE43
:1007A000D8E90010CDE90010002017E03AF8181041
:1007B0006A4602A800F02CFEB0F1FF3F81460BD044
:1007C00000250DF1080B05E0D4E901211BF8050017
:1007D00090476D1C4D45F7D308F10100B0428046AB
:1007E000E4DB206A384420622046FFF7EBFEBDE8D8
:1007F000FF9F000086A800002DE9F0418046D21D31
:1008000022F007020025D2E90002F52915A614D02E
:10081000011E72F1000106DA0023D0EB030063EB46
:10082000020211A608E0D8F800108B0701D50FA628
:1008300002E0490701D50EA601251146002408F162
:10084000240704E000F08EF930323A55641C50EA77
:100850000102F7D12B46324621464046BDE8F04121
:1008600000F0C5B9000000002D0000002B000000C2
:100870002000000030B4002100F1240408E002F060
:100880000705D208303542EA4372DB086554491C3B
:1008900052EA0305F3D10468002310A2250708D506
:1008A00004F020040C4304D0C46901230CA2641E8C
:1008B000C46130BC00F09BB910B5044621461068F5
:1008C000FFF79AFE02462046BDE810400023D1E71C
:1008D000D21D22F00701D1E90023CBE70000000080
:1008E00030000000F0B40D460188090502D5214C06
:1008F0007C4402E01F4C7C440E34002100F12406AD
:1009000008E002F00F071209E75D42EA03721B09D3
:100910007754491C52EA0307F3D1027800231207E7
:1009200004D5702D06D009B1022311342246F0BC43
:1009300000F05DB901231034F8E770B504460D46A8
:1009400021461068FFF758FE024629462046BDE8BA
:1009500070400023C6E7D21D22F00703D3E900232D
:10096000C0E70368126843F0200303600823C361F3
:100970000023B7E7E8A600002DE9F05F89460446AA
:100980004FF0000ADFF874B1FB44C0F820A0204605
:10099000E1688847002874D0252806D0D4E90121D1
:1009A0009047206A401C2062F1E700265F462046FF
:1009B000E16888472028054607DB312D05D27819E4
:1009C00010F8200C08B10643F1E7B00701D526F076
:1009D0000406C4F81CA00027C4F818A02A2D09D0CA
:1009E00028460AF0B1FA38B304EB8708303DC8F85E
:1009F000185019E059F8041B204604EB8702916156
:100A0000E1688847012F054618D1E069002820DAFF
:100A100026F020061DE0D8F8180000EB800005EB5A
:100A200040003038C8F818002046E168884705467D
:100A30000AF08AFA0028EED1012F0AD02E2D08D113
:100A40002046E16888477F1C0546022F46F02006B5
:100A5000C4DBA069002803DA404246F00106A06129
:100A6000F00701D026F010066C2D0BD0682D09D0B0
:100A70004C2D39D06A2D35D0742D35D07A2D33D008
:100A800016E038E0E1682F4620468847B842054620
:100A900009D16C2F26D04FF48060E16806432046D0
:100AA0008847054604E06C2F1AD04FF48070064347
:100AB0000DB3A5F14100192802D8203546F400668F
:100AC0004A462946204626604E46FFF7ADFB80B1D8
:100AD00001280BD0F61D26F0070000F1080956E7A3
:100AE0004020E4E78020D8E70020D6E706F104099B
:100AF0004DE7284652E7206ABDE8F09F78A600003F
:100B000010B5203AC0F00B80B1E81850A0E818509A
:100B1000B1E81850A0E81850203ABFF4F5AF5FEAEA
:100B2000027C24BFB1E81850A0E8185044BF18C98F
:100B300018C0BDE810405FEA827C24BF51F8043B36
:100B400040F8043B08BF7047D20728BF31F8023B8A
:100B500048BF11F8012B28BF20F8023B48BF00F81E
:100B6000012B704730B5B0F10A0271F100034FEA72
:100B7000900E4EEA817EB0EB0E0061EB91014FEAE0
:100B8000101E4EEA017E10EB0E0041EB11114FEAF0
:100B9000102E4EEA016E10EB0E0041EB11214FEAD0
:100BA000104E4EEA014E10EB0E0041EB1141401881
:100BB00041F100014FEAD00040EA41704FEAD10113
:100BC0004FEA810444EA907410EB800544EB010481
:100BD0006D1944EB0404521BA3414FF0000348BFBE
:100BE0000A3200D530BD401C41F1000130BD2DE975
:100BF000F0470D4699469246044600F124080168E4
:100C0000880604D5E06921F01001216000E0012090
:100C1000A84201DD471B00E00027A1697A1902EB19
:100C20000900081AA0612078C00602D42046FFF708
:100C3000B3FC002608E0D4E901211AF80600904729
:100C4000206A401C761C20624E45F4DB2078C006EA
:100C50000AD52046FFF7A0FC06E0D4E901213020A8
:100C60009047206A401C2062381EA7F10107F4DC7F
:100C700007E0D4E9012118F805009047206A401CDC
:100C80002062281EA5F10105F3DC2046FFF79AFC3F
:100C90002078000602D50220BDE8F0870120FBE79E
:100CA0002DE9FF4F0C461E464FF0FF378BB0D2E9BF
:100CB0000001DDF860800A908A46C1F30A5505B943
:100CC0003D46002108464FF00000BAF1000F00F445
:100CD000400005DA00EB80004FF4400101EA5000CB
:100CE0004FEA9059B9F1010F00DDB9460A9850EA70
:100CF0004A000ED044F61050A5F2FF3545432F149C
:100D0000B8F1000F1ED07542291E1EDDC9F1000288
:100D10001CE0B8F1010F4FF0000001D0302103E0DA
:100D2000F24305E02154401CB042FBDB3046002278
:100D3000002121540B99C1F80880C1E900200FB0AF
:100D4000BDE8F08FBD1B6D1CDEE74A4600DA694244
:100D500006A800F0F3FB06AB93E8070003AB83E8BB
:100D6000070050460A9909F00EFD8DE80700A0F52E
:100D700000501F3800900398002D0ADD42F21F0139
:100D80004A460844002303A90390684609F078FF07
:100D900009E0A0F500504A461F38002303A903903C
:100DA000684609F082FF8DE807000004000C03D0BC
:100DB0004FF0FF30410800E01046B8F1000F03D0BB
:100DC0000022009215461EE0751E05D4FFF7CAFEEC
:100DD000303262556D1EF9D5B3460122084302D068
:100DE00000227F1C04E02078302801D100227F1EE1
:100DF000002A099784D01DE0112D07DAFFF7B2FE13
:100E0000303262556D1C50EA0102F5D1084302D020
:100E10000098C8B10EE00021681E05E0235C625C0A
:100E200063542254401E491C8142F7DBAB46A81B89
:100E3000401E0990002004F80B000B98099AC0F896
:100E40000880C0E9002B7AE711264FF0000857E729
:100E50002DE9F04F88460446D21D22F0070191B0DB
:100E6000D1E90001CDE90A010AF056F802460B98D3
:100E7000C00F01D02D2007E02068810701D52B206D
:100E800002E0202101EAC000032A099001D0072ACC
:100E900005DB03464146204600F010FB0BE12078BD
:100EA000800601D5E06900E00620B8F1650F8146B3
:100EB00006D0B8F1660F18D0B8F1670F70D131E0E5
:100EC0000020B9F1110F009001DB112301E009F1BD
:100ED00001030AAA01A90CA8FFF7E2FEDDE90C70E4
:100EE000002609F10105834647E001204B460090AA
:100EF0004FF000470AAA01A90CA8FFF7D1FEDDE9CF
:100F00000DB00C995D46002610B909F101000D18CD
:100F1000B9EB050003D4C0F1FF3609F10105A5EBDB
:100F200009002BE0B9F1010F01DA4FF001090020AF
:100F3000B9F1110F0090484601DD112300E003468E
:100F40000AAA01A90CA8FFF7ABFEDDE90C704D461B
:100F500000268346207800070AD4AB4500DA5D46B8
:100F600001A8012D04DD411911F8011C302907D019
:100F70004F4502DA17F1040F04DA012082460FE030
:100F80006D1EEEE7002F02DCED1B3E4403E0781CF3
:100F9000A84200DD7D1CB81B00F1010A4FF000479C
:100FA0002078000703D4AA4501DB4FF0FF3A002167
:100FB000B7F1004F0DF143088DF8431024D0022003
:100FC0002B23002F01DA7F422D230A21021EA0F1DC
:100FD000010000DC5FB197FBF1FC97FBF1F201FB34
:100FE0001C7C17460CF1300C08F801CDEEE7A8F197
:100FF000010003702188090501D5452100E0652124
:10100000A0F1010800F8011C09980FA9A1EB08073D
:10101000FF1D00B10120411901EBEA70A1693844BC
:10102000081A401EA0612078C00602D42046FFF7AF
:10103000B3FA099828B1D4E901219047206A401CED
:1010400020622078C00622D52046FFF7A5FA1EE0D0
:10105000002E04DBB34502DD01A8805D00E03020F6
:10106000D4E901219047206A401C2062761CAAF135
:1010700001005FEA000A0AD100F01CFAC0680168AA
:10108000405CD4E901219047206A401C2062281E60
:10109000A5F10105DCDC07E0D4E9012118F8010B1A
:1010A0009047206A401C2062381EA7F10107F3DC3C
:1010B0002046FFF787FA032011B041E62DE9F04FF3
:1010C00004460D46D21D22F0070089B0D0E90097F2
:1010D0004846394609F020FF0246F80F01D02D237B
:1010E00007E02068810701D52B2302E0202101EAD7
:1010F000C0038DF820300BB1012000E00020032A4E
:10110000824601D0072A04DB2946204600F0D6F9A2
:101110003FE12078800601D40D2500E0E569C7F3A2
:101120000A560D2D49DA00214FEA175B08464FF0A9
:101130000000002F00F4400007DA00EB80004FF4BD
:10114000400100EBD07001EA60008115012901DD4A
:101150004FF0FF3100224FEA850CBCF1180F06D387
:101160001346ACF118004FF08052C24003E04FF438
:10117000801323FA0CF30CF10C0CBCF1200F04D3F8
:10118000ACF1200C09FA0CF001E007FA0CF0002990
:101190004FF0004801DD18B90FE00ED140450CD3E7
:1011A00019EB02095F4121B9404502D19F4329EA69
:1011B0000209BBEB175F00D0761C2088000502D522
:1011C0007B48784402E07A487844193808AA3023EA
:1011D00002F80A30037C0AF10101002E0AF1020A2A
:1011E00053546A4602DC4FF0300101E04FF0310108
:1011F0004FF001088DF8001002D0A6F2FF3603E090
:1012000059EA470100D06B4E002D02DC2178090716
:1012100004D54FF002082E218DF80110C44600219C
:101220000BE0C7F303433F01C35C491C6D1E02F88A
:101230000830052908F1010801DA002DF1DC002150
:101240000CE000EB1973491C1B786D1E082902F88D
:1012500008304FEA091908F1010801DA002DF0DC25
:1012600021688B0602D516E0A8F10108E04505DDEE
:1012700002EB080313F8013C302BF5D0B8F1000F56
:1012800009DD02EB080313F8013C2E2B03D10907FB
:1012900001D4A8F10108002D05DD3E2102F8081057
:1012A0006D1E08F10108407C002E02F8080008F1CC
:1012B000010804DA2D20764202F8080002E02B2013
:1012C00002F808000A214FF47A70864208F10108FA
:1012D0000BDB96FBF0F3303302F8083096FBF0F3AB
:1012E00008F1010800FB136601E0642E0CDB6420AA
:1012F00096FBF0F3303302F8083096FBF0F308F178
:10130000010800FB136601E00A2E06DB96FBF1F0F4
:10131000303002F8080008F1010896FBF1F001FBFB
:101320001060303002F80800A16908F1010808EBEC
:10133000050202EB0A00081AA0612078C00602D458
:101340002046FFF729F9216A08AE01EB0A00206266
:1013500004E0D4E9012116F8010B9047BAF1010A23
:10136000F7D22078C00602D52046FFF715F96E4661
:1013700009E016F8010B3E280FD0D4E9012190476F
:10138000206A401C2062B8F10108F2D22046FFF723
:1013900019F909B00320BDE8F08F206A28442062C3
:1013A00003E0D4E90121302090476D1EEBD3F8E72C
:1013B000629E000002FCFFFF10B5436913B1AFF35A
:1013C000008001E0FFF721F9012010BD127800F143
:1013D00024010A7000224A700122EDE711684FF0E3
:1013E000FF32E9E710B5436913B1AFF3008001E0C4
:1013F000FFF7A4F9012010BD128800F124018284B6
:101400000022C2840122EDE711684FF0FF32E9E7C4
:101410002DE9F04116460C46054600F043F80368F6
:1014200093F80101012807D0FF2C12D8185D80B174
:1014300001202C70BDE8F081D3F807013246214627
:1014400003F20713C7182846BC46BDE8F041002345
:1014500060474FF0FF30EDE7754600F0EBF8AE4621
:1014600005006946534620F00700854618B020B5B0
:10147000FEF754FFBDE820404FF000064FF0000794
:101480004FF000084FF0000BAC46ACE8C009ACE8E8
:10149000C009ACE8C009ACE8C00921F007018D46DD
:1014A0007047000010B500F005F8001D10BD00BF2A
:1014B000D59A000000487047500000202DE9F04107
:1014C0001F46044603260168072A01F4006004DB76
:1014D00008B116A505E016A503E008B115A500E0C2
:1014E00015A521F010002060A069C01EA0610FB1F9
:1014F000401EA0612046FFF74FF84FB1D4E901210B
:1015000038469047206A401C2062C01C206206E0DA
:10151000206AFAE7D4E9012115F8010B9047761EFD
:10152000F8D22046FFF74EF8BDE8F0814E414E005C
:101530006E616E00494E4600696E66002DE9F04707
:10154000814616468AB0354878440DC88DE80D00AE
:1015500032487844801C03AC0DC884E80D0041F685
:101560009B300844372190FBF1F290FBF1F5A5F197
:10157000800501FB12041B3C02D56442012000E0FF
:101580000020DFF898A080460027FA44AAF1BE0A9E
:101590000EE0E0070AD03246684607EB4701012318
:1015A0000AEB810109F081FB8DE8070064107F1CC4
:1015B000002CEED1194F7F44AE3F19E0E80715D05B
:1015C00007EB04100DF1180A90E80E008AE80E00EF
:1015D000C068F04201D1981908903246012306A94B
:1015E00003A809F062FB03AB83E807006D10641CDD
:1015F000002DE3D14FF0010332466946B8F1000FE8
:1016000003A802D009F03CFB01E009F04EFBC9E958
:101610000001C9F808200AB0BDE8F0876C9B000003
:1016200010B50446AFF300802046BDE81040FEF739
:1016300060BE00000048704730000020000000003D
:1016400030B44FF0013C50F8042B51F8043BCCFA75
:1016500052F4D51A20D1FCB950F8042B51F8043BB0
:10166000CCFA52F4D51A17D1B4B950F8042B51F86A
:10167000043BCCFA52F4D51A0ED16CB950F8042BB5
:1016800051F8043BCCFA52F4D51A05D1002CDAD02B
:1016900030BC4FF00000704729BAB1FA81F111F067
:1016A0001801D1F120008440F2D1CA40CB4012F0A1
:1016B000FF0213F0FF0330BCD01A70470149182015
:1016C000ABBEFEE726000200704700000146806BBB
:1016D000036C026C13F0500F08D0D20648BF00F024
:1016E00071BD806BC26C0846104700BF42F40071A8
:1016F000016401688A6812F0405F01D000F00ABD01
:10170000027E002AFAD1CA6A12F4700F02D08A68E7
:101710005205F3D44A6822F020024A60016C21F499
:1017200080710164016CC90448BF00F0F3BC016C16
:1017300041F00101016400F0EDBC0000806B40212C
:101740000164416C41F00401416400F03BBD0000C4
:10175000806B00F035BD000082B04BF2211001A972
:1017600040F2D40740F2F81644F6BB1840F2940950
:101770004D1CC2F200074FF0FF34C2F20006C0F267
:101780000C280DF1060B00F5807AC2F200090FE07B
:1017900038684FF4003107F05BFD38684FF4802162
:1017A00001220123009407F0ADFD0A2006F078F92C
:1017B00006F0FAF838684FF48041012200230094C3
:1017C00007F0A0FD3088A0FB080101F0FC008C2888
:1017D0008DF804101AD340F29800C2F2000000689D
:1017E0004BF22111ADF8061059460022002308F0F3
:1017F0005FF838684FF4004107F02AFD38684FF46D
:10180000803101220123009407F07CFD7088A0FB49
:10181000080101F0FC008C288DF8051018D340F267
:101820009800C2F200000068594600220023ADF87B
:1018300006A008F03DF838684FF4803107F008FD45
:1018400038684FF4803101220123009407F05AFDDB
:10185000D9F8000001A90022002308F029F828B9CE
:101860004BF6F340C0F6000006F0F0F8D9F800009F
:1018700029460022002308F01BF8002888D14BF6E7
:10188000F340C0F6000006F0E1F881E7FEE7000053
:1018900040F61C00C2F2000001F0C8B8A8B020A8B1
:1018A000411C1F91811C1E91C11C1D91011D1C9189
:1018B000411D1B91811D1A91C11D199100F1080153
:1018C000189100F10901179100F10A01169100F138
:1018D0000B01159100F10C01149100F10D01139110
:1018E00000F10E01129100F10F01119100F11001B0
:1018F000109100F111010F9100F112010E9100F110
:1019000013010D9100F114010C9100F115010B91DF
:1019100000F116010A9100F11701099100F1180177
:10192000089100F11901079100F11A01069100F1E7
:101930001B01059100F11C01049100F11D0140F211
:10194000D40840F2940A4BF65C47039100F11E0163
:101950001F304FF0000BC2F200080FF2B836C2F28F
:10196000000AC0F600070291019005E00FF2D030A6
:1019700006F06CF84FF0000B4FF000090025D8F886
:10198000000041F24001C0F20201012200234FF0A9
:10199000FF34009407F0B6FC04463046214606F0BA
:1019A00055F8600626D4E00400F10481A00340F15C
:1019B0009581DAF8000002994FF0FF3208F07CF9C7
:1019C00028B94BF6AC40C0F6000006F03FF8DAF854
:1019D000000001994FF0FF3208F06EF928B94BF67C
:1019E000AC40C0F6000006F031F801354FF480211C
:1019F00070E100BFDAF8000020A94FF0FF3208F0D4
:101A00005BF910B9384606F021F8DAF800001F99A2
:101A10004FF0FF3208F050F910B9384606F016F8CA
:101A2000DAF800001E994FF0FF3208F045F910B9BE
:101A3000384606F00BF8DAF800001D994FF0FF3237
:101A400008F03AF910B9384606F000F8DAF8000064
:101A50001C994FF0FF3208F02FF910B9384605F005
:101A6000F5FFDAF800001B994FF0FF3208F024F977
:101A700010B9384605F0EAFFDAF800001A994FF07D
:101A8000FF3208F019F910B9384605F0DFFFDAF82F
:101A9000000019994FF0FF3208F00EF910B93846DE
:101AA00005F0D4FFDAF8000018994FF0FF3208F083
:101AB00003F910B9384605F0C9FFDAF800001799A4
:101AC0004FF0FF3208F0F8F810B9384605F0BEFFC5
:101AD000DAF8000016994FF0FF3208F0EDF810B96F
:101AE000384605F0B3FFDAF8000015994FF0FF32E1
:101AF00008F0E2F810B9384605F0A8FFDAF800005F
:101B000014994FF0FF3208F0D7F810B9384605F0B5
:101B10009DFFDAF8000013994FF0FF3208F0CCF87F
:101B200010B9384605F092FFDAF8000012994FF02C
:101B3000FF3208F0C1F810B9384605F087FFDAF82F
:101B4000000011994FF0FF3208F0B6F810B938468E
:101B500005F07CFFDAF8000010994FF0FF3208F032
:101B6000ABF810B9384605F071FFDAF800000F99AC
:101B70004FF0FF3208F0A0F810B9384605F066FFC4
:101B8000DAF800000E994FF0FF3208F095F810B91E
:101B9000384605F05BFFDAF800000D994FF0FF3290
:101BA00008F08AF810B9384605F050FF0BF1010B28
:101BB00080218FE0DAF800000C994FF0FF3208F036
:101BC0007BF828B94BF68440C0F6000005F03EFFD4
:101BD000DAF800000B994FF0FF3208F06DF828B9E1
:101BE0004BF68440C0F6000005F030FFDAF8000044
:101BF0000A994FF0FF3208F05FF828B94BF684409D
:101C0000C0F6000005F022FFDAF8000009994FF055
:101C1000FF3208F051F828B94BF68440C0F60000B6
:101C200005F014FFDAF8000008994FF0FF3208F0D1
:101C300043F828B94BF68440C0F6000005F006FFD3
:101C4000DAF8000007994FF0FF3208F035F828B9AC
:101C50004BF68440C0F6000005F0F8FEDAF800000C
:101C600006994FF0FF3208F027F828B94BF6844068
:101C7000C0F6000005F0EAFEDAF8000005994FF022
:101C8000FF3208F019F828B94BF68440C0F600007E
:101C900005F0DCFEDAF8000004994FF0FF3208F09E
:101CA0000BF828B94BF68440C0F6000005F0CEFED4
:101CB000DAF8000003994FF0FF3207F0FDFF28B972
:101CC0004BF68440C0F6000005F0C0FE09F10109A2
:101CD0004FF40051D8F8000007F0BAFABBF1640FD6
:101CE00098BFB9F1640F11D946F6722220A82021BD
:101CF000C0F6147200F01EF94FF0000B01284FF0EF
:101D000000094FF000057FF43AAE2FE6652DFFF491
:101D100036AEE9E763616E5F6170702E633A696E9B
:101D2000746F2063616E20646174612073656E64FA
:101D30002C7578426974732069732025640D0A003C
:101D400063616E5F6170702E633A63616E207365CC
:101D50006E6420612070616765206F662064617425
:101D6000610D0A0082B040F2D40740F2A00546F6A9
:101D70007239C2F200074FF0FF36C2F200050DF1D2
:101D80000604C0F614790FF23C0800BF38684FF41F
:101D9000000101220023009607F0B4FA28682146CA
:101DA0004FF0FF3207F088FF0128EFD120460221D3
:101DB0004A4600F0BFF80128E8D1404605F046FE4B
:101DC000E4E700BF63616E5F6170702E633A636128
:101DD0006E2073656E642061206672616D65206F90
:101DE00066206572726F7220646174610D0A000072
:101DF00010B58AB00020CDE905000121CDE9000031
:101E0000CDE90200049040F61C00CDE90711C2F2B2
:101E10000000694600F002FD002818BF00F0D2F86B
:101E200040F61C04C2F20004204601F049F82046A6
:101E3000022100F087FC0AB010BD000084B041F21E
:101E4000000AC4F2020A02A840F2D80640F29C0935
:101E500000F1010B871CC51CC2F200064FF0FF38D1
:101E6000C2F20009AAF5806424E000BF9DF80810C2
:101E70003068090207F0ECF99DF809001021643878
:101E8000B0FA80F04209204601F074FB9DF80A0088
:101E900002216438B0FA80F04209504601F06AFB32
:101EA0009DF80B0008216438B0FA80F042095046D2
:101EB00001F060FB3068032101220023CDF800808F
:101EC00007F020FAC007F5D0D9F8000002A90A22CD
:101ED00007F0F2FE28B94BF6D340C0F6000005F03B
:101EE000B5FDD9F8000059460A2207F0E5FE28B9E9
:101EF0004BF6D340C0F6000005F0A8FDD9F800006D
:101F000039460A2207F0D8FE28B94BF6D340C0F66E
:101F1000000005F09BFDD9F8000029460A2207F0D1
:101F2000CBFE0028A2D14BF6D340C0F6000005F04E
:101F30008DFD9BE72DE9F04381B00C4640F22C76F5
:101F400005460020C2F2000604210090C6E90121E6
:101F5000F0603075BCB140F61C080027C2F20008E2
:101F6000E94600BF2046082C28BF08203061EA1946
:101F7000404631464B4600F0FDFB38B93069241A23
:101F80000744EFD1002001B0BDE8F083012001B08B
:101F9000BDE8F08340F64400C2F2000001F014B83E
:101FA00040F60410C2F2000001F00EB840F6A400A2
:101FB000C2F2000001F008B870470000012001F0F3
:101FC000F7B9000072B600BFFEE7000070B581B03F
:101FD0000022009290F83C20012A03D102210846F9
:101FE00001B070BD0E6801220A2E80F83C2009D392
:101FF000B2B25200D0F800E012FA86F21E3A0EF1A8
:102000000C0305E0D0F800E006EB46020EF11003E9
:102010004FF0070C1D680CFA02F4A5431D608D6893
:102020001C6805FA02F222431A60496806290FD893
:1020300001EB81014A1F71461F2351F8345F934021
:1020400025EA03030B60B3B203FA02F214E000BF07
:1020500001EB81030C29B2B204D8714651F8304F1C
:10206000233B03E0714651F82C4F413B1F259D4017
:1020700024EA05059A400D600B6842F2043CC4F264
:10208000010C1A43ACF541739E450A603BD1122EF8
:1020900006D1DCF8001041F48001CCF8001032E0E9
:1020A00026F0010110292ED1DCF80010102E41F489
:1020B0000001CCF8001026D140F22401C2F2000148
:1020C00009684DF68362C4F21B32A1FB0212910C27
:1020D00001EB8101490000910099A1B100990139FA
:1020E0000091009979B1009901390091009951B19D
:1020F000009901390091009929B1009901390091A5
:1021000000990029EAD1002180F83C10084601B06E
:1021100070BD000080B582B040F28C72C2F2000245
:102120000021904201910DD040F2D471C2F2000121
:1021300088421BD040F24471C2F2000188422DD087
:1021400002B080BD40F28C70C2F2000000F0C2FA12
:1021500040F2DC0140F2D400C2F20001C2F2000001
:10216000097800680139012211E000BF40F2D47003
:10217000C2F2000000F0AEFA40F2D40040F2DD01FD
:10218000C2F20000C2F2000100680978802202FA5F
:1021900001F101AA07F0ACF802B080BD40F2447032
:1021A000C2F2000000F096FA40F2D400C2F2000041
:1021B000006801AA4FF4804107F09AF802B080BD90
:1021C0007047000001A005F041BC00BF414443201E
:1021D0006572726F720D0A00002804BF01207047FB
:1021E00010B50446006C00283ED0206CC00645D4D3
:1021F000206C41F202118843023042F20431206423
:10220000C4F20101086820F4403008600A6894E8CC
:1022100009101A43D4F810E00A604168012321F440
:10222000807141604168C0F6007341EA0E2141604F
:10223000416821F040714160416841EA0C01416010
:10224000816821F400618160E168826811438160E6
:10225000A16A8268994222F070628260826813D11A
:1022600022F0405119E000BF204600F065F8002040
:10227000606484F83C00206CC006B9D501200021C0
:1022800084F83C1010BD00BF11438160816821F0CB
:1022900040518160E16A826811438160816821F068
:1022A000020181608168227E94F8203041EA420177
:1022B0008160416883B141F40061416041684EF240
:1022C000000221F460414160616ACFF6FF72436809
:1022D00002EB4131194301E021F400614160C16A20
:1022E00040F2000C21F47001C162E2696169CFF62D
:1022F000F07CC36A0CEB02521A43C262826822F479
:102300000072826094F83020836843EA422282603F
:10231000826822F480628260826842EA8121816060
:1023200000206064216C012262F30101216400211C
:1023300084F83C1010BD00002DE9F04186B0044641
:10234000006842F20021C4F2010100278842CDE971
:102350000477CDE9027701974CD042F20011C4F224
:102360000101884200F09A8042F20001C4F20101AA
:10237000884240F0DC80002643F630000096C4F22C
:102380000200416941F480714161416901F4807149
:10239000009100990096016841F004010160006815
:1023A00001A900F004000090009830200190032063
:1023B000CDE902060020C4F2020000F5006001F041
:1023C00003F840F6440546F21040C2F20005C4F29C
:1023D00002004FF48061C5E9000605F110004FF4DA
:1023E00000624FF40053C5E902664EC0C5E90866B5
:1023F00094E000BF43F630000097C4F20200416948
:10240000002541F4806141614169C4F2020501F493
:102410008061009100990097016801AE41F00401CC
:10242000016001684FF0030801F004010091009978
:102430000097016841F0010101600068314600F039
:102440000100009000980F20019005F50060CDE993
:10245000028700F0B9FF0220CDE901082846314685
:10246000039700F0B1FF46F21040C4F2020040F6BC
:1024700004151830C2F200054FF080614FF48062FD
:102480004FF4006385E8830005F114004FF4005613
:10249000C5E90372C8C0C5E908773FE0002643F6E6
:1024A00030000096C4F20200416941F400714161BC
:1024B000416901F40071009100990096016841F0B2
:1024C00001010160006801A900F00100009000987E
:1024D000F82001900320CDE902060020C4F202009A
:1024E00000F072FF46F21040C4F2020040F6A4056C
:1024F0003030C2F200054FF000714FF480624FF4AB
:1025000000634FF4005785E843004FF44030C5E9BD
:102510000362C5E90537EE61C5E90806284600F003
:1025200033FE002818BFFFF74DFDA563AC6306B06E
:10253000BDE8F081B0B582B004460020019094F867
:102540003C00012802D1022002B0B0BD94460A46E8
:102550000120216884F83C008868C00729D1886878
:102560004DF6836540F00100886040F22400C2F21D
:1025700000000068C4F21B35A0FB0505A80C00EBA9
:10258000400001900198A0B1019801380190019894
:1025900078B1019801380190019850B10198013843
:1025A0000190019828B10198013801900198002804
:1025B000EAD18868C00503D5886820F480708860F7
:1025C0008D68206CED0709D140F010002064606C2C
:1025D00040F001006064002002B0B0BD40F201751F
:1025E000A84300F5807020644868400504D5206C3D
:1025F000012565F30D302064256C0020ED044FF0BB
:10260000000544BF656C25F00605656484F83C0050
:10261000A06B41F2CD6541F25173C0F60005C0F6E2
:102620000003C0E90F5341F23D73C0F60003C364D9
:102630006FF022030B604B6842F2080543F08063A1
:102640004B608B68C4F2010543F480738B604C319E
:10265000634600F04BFED5F8FC122068C9060FD087
:10266000A5F108018842B6D1286810F0405FB2D1C8
:10267000286840F080402860002002B0B0BD00BF54
:1026800042F20001C4F20101884217D042F2002157
:10269000C4F2010188420DD042F20011C4F20101DE
:1026A000884298D1D5F8FC12C90607D005F5FC710F
:1026B000884290D1D5F8FC12C9068CD4816811F0FB
:1026C000405F7FF488AF816841F0804181600020E5
:1026D00002B0B0BDB0B5044690F83C00012804BF7C
:1026E0000220B0BD0120216884F83C0088680025E4
:1026F00020F0010088608868C0074FF000001DD1FD
:10270000886820F480708860A06B90F835100229EA
:1027100008D100F011FC28B1216C41F04001216486
:1027200001E000BF002021684A6822F080624A6010
:10273000216C41F2011291430131216484F83C5033
:10274000B0BD000090F82020013A012A08D80068A6
:1027500000F114020020136819431160704700BF94
:1027600000F1240201204FF4802113681943116005
:102770007047000010B590F820E0D0F800C0AEF12E
:10278000010EBEF1010FDCF808E011D81EF0E05F89
:1027900018D0CEF3016E012000FA0EF018608B689D
:1027A000D3B14868CC6844EAC000034318E000BFD6
:1027B00000F1240101204FF480220B681A430A60C3
:1027C00010BD00BF00F1240101204FF400120B687E
:1027D0001A430A6010BD00BF0868CB6843EA405343
:1027E0000CEB0E10C0F880310B69C0F88431097D04
:1027F000012905D100F5C2710B6843F480730B60A9
:102800005168C0F88C11126800F5C071C0F88821B9
:10281000002001220B681A430A6010BD90F82020A6
:10282000013A012A30D8B0B546F20060C4F2000087
:10283000026842F001020260026822F47C520260E7
:10284000D1F814E0CC694A6A0368012C43EA0222F9
:1028500002600EF01F024FF0010303FA02F2C36997
:102860006FEA020C23EA0203C36113D02CBBC368D6
:1028700003EA0C03C360CB688C8844EA034300EB93
:10288000CE0423640B4611E0416A41F48021416289
:1028900001207047C3681343C3600B688C8844EA07
:1028A000034300EBCE04236401F10C038C681B8806
:1028B00043EA044300EBCE04636443688D6943EA52
:1028C0000204D1F810E0096A002D08BF03EA0C04E5
:1028D00044604369BEF1000F43EA020408BF03EA03
:1028E0000C040129446102D1C1691143C16101682D
:1028F00021F0010101600020B0BD00007047000020
:1029000010B590F82040013C012C7BD8D0F800C0D5
:1029100000290CBFDCF80C40DCF81040A4077BD089
:102920000CEB011CDCF8B0410CF5D87E14F004046B
:102930009460DCF8B04119BFE4085460640D146081
:10294000DEF800400CF5DA7E04F00204D460DCF816
:10295000B44124075ABFDEF8004004F00F040824F5
:102960001461DEF800400029C4F307249461DEF806
:1029700000404FEA14445461DCF8B8211A70026830
:1029800002EB0112D2F8B8214FEA12225A70026803
:1029900002EB0112D2F8B8214FEA12429A70026893
:1029A00002EB0112D2F8B8214FEA1262DA70026823
:1029B00002EB0112D2F8BC211A71026802EB01127B
:1029C000D2F8BC214FEA12225A71026802EB0112BE
:1029D000D2F8BC214FEA12429A71026802EB01124E
:1029E000D2F8BC214FEA1262DA7100680CBF00F124
:1029F0000C0100F11001002020220B681A430A602C
:102A000010BD00BF00F1240101204FF480220B68AB
:102A10001A430A6010BD00BF00F1240101204FF4E9
:102A200000120B681A430A6010BD00002DE9F04F38
:102A300081B0044600684669D0F804908768D0F8F1
:102A40000CB0D0F810A0D0F81880F10704D1002500
:102A500030071DD424E000BFF90710D00121BA07C8
:102A6000816009D4780700F1AF80380700F1B680A3
:102A7000204600F053FA02E0204600F051FA00250B
:102A8000F80500F18780F80300F1B180300707D521
:102A90001BF0100004D0206845F400751021C160BF
:102AA000700708D51BF0080005D020680821C16018
:102AB000204600F0A5F9B00706D52068C068800759
:102AC00002D0204600F09EF9700607D51AF01000DB
:102AD00004D0206845F4806510210161B00608D556
:102AE0001AF0080005D0206808210161204600F096
:102AF000E1F9F00606D520680069800702D020467B
:102B000000F0DAF9B00308D519F0100005D02068FC
:102B100010214160204600F0D1F9F00308D519F0EA
:102B2000080005D0206808214160204600F002FA24
:102B3000300440F19B805FEA497040F1948006F4D4
:102B4000807008EA102028435FEA8871014648BF78
:102B500041F00201B20558BF01465FEA48700D46D8
:102B600048BF45F00405700558BF0D46300540F1DB
:102B70007A8018F0700000F076801038000905287F
:102B80006CD8DFE800F003595D61656945F0080520
:102B900064E000BF20684FF48071BA0581600BD4F7
:102BA000780515D438051DD4204600F0BBF9F8038C
:102BB0007FF56CAF1BE000BF204600F0B5F9F803CD
:102BC0007FF564AF13E000BF4FF4006558E700BF26
:102BD00005F50055F8037FF559AF08E04FF480552F
:102BE0004EE700BF05F58045F8037FF54FAF20683D
:102BF0004FF48031BA0381600AD4780310D43803CB
:102C000014D4204600F092F930073FF541AF47E772
:102C1000204600F08DF930073FF53AAF40E700BF9E
:102C200005F5004530073FF533AF39E705F5803549
:102C300030073FF52DAF33E745F010050EE000BF3C
:102C400045F020050AE000BF45F0400506E000BF62
:102C500045F0800502E000BF45F480752068816979
:102C600021F07001816120680421416055B1606AE2
:102C700040EA05012046616201B0BDE8F04FFFF770
:102C80003DBE00BF01B0BDE8F08F0000002804BFCA
:102C900001207047B0B5044690F8200010B92046D6
:102CA00000F06EF82068016841F00101016000F059
:102CB00067FC054620684168C90705D100F060FC43
:102CC000401B0B28F6D310E0016821F002010160DF
:102CD00000F056FC054600BF2068416889070DD505
:102CE00000F04EFC401B0B28F6D3606A052140F42F
:102CF00000306062012084F82010B0BD217E02689F
:102D0000012922F0800208BF80320260617E0268E1
:102D1000012922F0400208BF40320260A17E026811
:102D2000012922F0200208BF20320260E17E026801
:102D3000012922F0100218BF10320260217F0268C0
:102D4000012922F0080208BF08320260617F026890
:102D5000012922F0040208BF04320260D4E901C252
:102D6000D4E9033561691A432A431143ACF10102E6
:102D70001143C16100200121606284F82010B0BDC0
:102D8000016846F20040C4F20000814218BF70475B
:102D900080B586B0002143F630020191C4F20202F0
:102DA000136900F5D03043F000731361136903F029
:102DB00000730193019B0191116841F002011160C0
:102DC000116801F00201019101994FF440710191E4
:102DD000022102910121039103210491092105910E
:102DE00001A900F0F1FA14200521002200F060FE94
:102DF000142000F04BFE06B0BDE880407047000094
:102E000070470000F0B583B040F61C02C2F2000229
:102E100000219042009101D003B0F0BD40F2106457
:102E200040F61C00C2F20004C2F2000001AB2246D0
:102E3000FFF766FD0028EFD1606840F2022188426A
:102E4000EAD140F29C06C2F20006306801AC21468D
:102E50000022002306F08AFE40F2D807C2F20007E3
:102E600038686D4601212A4606F042FA306821464C
:102E70000022002306F07AFE386801212A4606F077
:102E800037FA306821460022002306F06FFE3868CA
:102E900001212A4606F02CFA306821460022002340
:102EA00006F064FE386801212A4606F021FA03B0D4
:102EB000F0BD000070470000704700007047000040
:102EC000B0B5044690F8200001281DD1022084F8F6
:102ED00020002068016821F00101016000F050FB32
:102EE000054600BF20684068C00713D000F048FBCB
:102EF000401B0B28F6D3606A40F400306062052066
:102F000084F820000120B0BD606A40F400206062B7
:102F10000120B0BD00206062B0BD0000704700001D
:102F200070470000704700007047000070470000C5
:102F3000704700007047000070B5866D044600F0D1
:102F40001FFB94F83510022928D105462068216C12
:102F5000026822F016020260426922F08002426199
:102F600009B9A16C19B1016821F00801016001687B
:102F700021F00101016000BF20680068C00715D082
:102F800000F0FEFA401B0628F6D3202060650320DF
:102F900084F83500002184F8341070BD802060650D
:102FA0000120002184F8341070BD00BFE06D3F2186
:102FB00001FA00F0B060012084F835000020002103
:102FC00084F8341070BD0000F0B581B004460020D4
:102FD000009040F22400C2F200000268D4E91660BA
:102FE00048F2B51337680821C1F64E3381403942A3
:102FF000A2FB03250CD0226813685B0708D5136871
:1030000023F004031360B160616D41F0010161655B
:1030100001218140394208D022685269120604D544
:10302000B160616D41F00201616504218140394266
:1030300008D022681268920704D5B160616D41F032
:103040000401616510218140394217D0206802686F
:10305000120713D5B16002680168520308D4C9058C
:1030600008D4016821F008010160216C21B905E054
:1030700008033FD4216C09B120468847E16D202028
:1030800000FA01F23A4241D020680368DB063DD5E0
:10309000B26094F835300268052B1BD122F016027D
:1030A0000260426922F080024261226C0AB9A26C7D
:1030B0001AB1026822F0080202603F208840B06026
:1030C000012084F83500216D0020002984F83400A7
:1030D00052D157E00168520310D4C90512D40168D7
:1030E00021F010010160012084F83500002084F8EF
:1030F000340007E0A16C0029BED1BFE7080301D46A
:10310000616C00E0E16B09B120468847606DC8B38F
:10311000606DC0072ED0052084F835002068A90A0C
:10312000026822F001020260009A01328A42009293
:103130001AD80268D20717D0009A01328A42009248
:1031400012D80268D2070FD0009A01328A42009248
:103150000AD80268D20707D0009A01328A42009248
:1031600002D80268D207DFD1012084F835000020A0
:1031700084F83400E16C29B1204601B0BDE8F0408C
:10318000084700BF01B0F0BD2DE9F041044600F052
:10319000F7F9ECB10546022084F8350000202168DB
:1031A00084F83400086820F001000860216808688D
:1031B000C00711D000F0E4F9401B0528F6D903251B
:1031C00020230320636584F83550BDE8F08100BFFB
:1031D0000120BDE8F08100BF086848F23F02CFF24D
:1031E0001002D4E9013500EA020C04F10C0898E859
:1031F000C10143EA0C032B431843D4E9072E3043A3
:1032000038431043626A40EA0E00042A40EA080389
:103210001CD1206BD4E90A2E40EA0E001843086046
:103220004869BEF1000F20F0030040EA020040F0C0
:10323000040C11D0B8F5005F36D0B8F1000F45D1BD
:10324000022A46D0012A3BD032B942E00B604869DD
:1032500020F0070040EA020C01F0F8004AF6AB2229
:103260001038CAF6AA22A0FB02231A094BF64033F3
:10327000C1F814C0C0F600039A5C40F2FF335F2827
:103280004FF03F0021EA030100FA02F088BF043149
:10329000C4E916128860002301250020636584F8C4
:1032A0003550BDE8F08100BF032AD5D80125402361
:1032B0000120DFE802F0030E030500BF82E700BF34
:1032C000AEF1C070B0FA80F0400904E0032A04D3E4
:1032D000C2D1CEF300600028BED0012540230120DA
:1032E000636584F83550BDE8F081000090F834C083
:1032F000BCF1010F04BF0220704770B54FF0010C04
:1033000080F834C0D0F858E090F835C0BCF1010F17
:1033100038D14FF0020C80F835C04FF0000CC0F8E7
:1033200054C0D0F800C08468056CC06DDCF8006043
:10333000402C26F48026CCF80060CCF804300B46F4
:1033400004BF13460A463F2101FA00F0CCF80830CA
:10335000CCF80C20CEF80800DCF8000040F0160095
:10336000CCF800002DB1DCF8000040F00800CCF8EB
:103370000000DCF8000040F00100CCF80000002064
:1033800070BD00BF002180F83410022070BD000025
:1033900080B582B040F2D800C2F20000002100687F
:1033A000019101AA4FF4000105F0A2FF02B080BD17
:1033B00043F61441C4F201010A68024214BF0860D6
:1033C0007047FFF7E5BF00002DE9F04F82B000F134
:1033D0003E4707F1FF77860546EA972741F6004604
:1033E000C4F20206082243F6004EB04208BF07228C
:1033F000C4F2010E072F38BF3A46002600274FF0CF
:103400000008009209E000BF08F101080237B8F196
:10341000100F06F1040600F0A3800D68012202FAE5
:1034200008F415EA0409EFD0D1F804B003220BF038
:10343000030CACF10105BA40012D6FEA020A0FD866
:103440008268CD6802EA0A02BD402A43826042686F
:10345000A243CBF3001404FA08F42243426005E0CF
:10346000BCF1030F02D14FF0030C1EE0C2688C6860
:1034700002EA0A02BC402243BCF1020FC26014D12E
:103480006FF0030202EA58020244D2F820C006F0AC
:103490001C040F230D69A3402CEA0303A5402B4312
:1034A0001362D1F804B00BF0030C02680CFA07F3B6
:1034B00002EA0A021A431BF4403F0260A4D0002231
:1034C00043F644030192C4F202031A684FF6084C13
:1034D00042F480421A601A68CFF6FF7C02F4804200
:1034E0000192019A28F00302724452F80C3006F05F
:1034F0000C050F24AC40A343009C04FA05F52B43B4
:1035000042F80C30DEF808204B6842EA090543F621
:103510000C4CDC0258BF22EA0905CEF80850C4F270
:10352000010CDCF800209C0242EA090558BF22EA9F
:103530000905CCF80050DEF804209C0342EA090596
:1035400058BF22EA0905CEF80450DEF80020DB035C
:1035500042EA090558BF22EA0905CEF8005053E7B0
:1035600002B0BDE8F08F00000069084018BF0120DC
:1035700070470000002A08BF0904816170470000FD
:1035800044F67040C2F2000000687047002804BF93
:1035900001207047F0B581B0044690F83D0028B98D
:1035A000002084F83C00204600F090F9242084F8A4
:1035B0003D002068016821F001010160016841F4CB
:1035C00000410160016821F40041016000F0A2FBAC
:1035D000636848F2A16CC0F2010C40F60011C0F221
:1035E0003D0163453CBF48F28041C0F21E01884264
:1035F00002D2012001B0F0BD4DF68361C4F21B314F
:10360000A0FB01122168970CD1F804E04FF49676E4
:103610002EF03F0545EA92454D60774348F638164F
:103620000D6AC0F24106A7FB067625F03F07634509
:1036300038BF960C721C3A430A62CA6948F2A06607
:103640004CF6FF77C0F20106B34222EA07020BD81C
:1036500001385B00B0FBF3F001306FF31F3004283A
:1036600098BF04201BE000BFA768013857B1192795
:103670007B43B0FBF3F001306FF31F3070B100F506
:10368000804007E003EB4303B0FBF3F001306FF33E
:103690001F3018B100F5004001E000BF01201043C9
:1036A000C8610868D4E9072320F0C000104318431C
:1036B0000860886848F2FF3204F10C0790438CCF11
:1036C00018431043A6698860C86820F0FF0038439B
:1036D0003043C860086840F00100086000202021E5
:1036E000206484F83D10206384F83E0001B0F0BDF2
:1036F0002DE9F04383B01E46174689460446FFF77E
:103700003FFF94F83D10202924D10546206800BFD2
:10371000816989071AD5FFF733FF411B20681A29F1
:10372000F6D381698907F3D500202021206384F82E
:103730003D1084F83E00216C41F02001216484F8A2
:103740003C00022003B0BDE8F08300BF94F83C10B9
:10375000012903D1022003B0BDE8F083012184F8E0
:103760003C100168C90703D1016841F00101016003
:10377000016840F2020821F400610160212184F80F
:103780003D10102184F83E10002121646762668597
:10379000618DC0F201082185A8F10211E162E16AA0
:1037A0000A9E11F5803F18BF01291DD1016841F41F
:1037B0008071016020464FF00111002233460095D0
:1037C00002F096F850B120680068C00544BF4FF47D
:1037D00000702064012003B0BDE8F0832069B0F5DB
:1037E000804F07D1FE2015E00829DFD0216B122978
:1037F000DCD0DFE7062000EAD9102168F03008614C
:1038000008F10601204632462B4602F057F90028FF
:10381000E0D1FF20216800EA090008612046414606
:1038200032462B4602F04AF90028D3D100200290FC
:1038300020684169029180690290029806E000BF09
:10384000204631462A4601F0F5FF18BB208D68B3AB
:10385000204631462A4602F09DF9D8B9606A2168AF
:10386000024612F8013B0B616262628D013A628589
:10387000228D531E23854F697F07E1D51B04DFD0BE
:10388000437802300B616062608D01386085901E64
:103890002085D5E7206C04289CD12068016841F47C
:1038A00000710160012003B0BDE8F0832068016869
:1038B00041F400710160202084F83D00002084F86C
:1038C0003E0084F83C0003B0BDE8F083016845F297
:1038D0000040C4F20000814218BF7047B0B586B006
:1038E000002543F630040195C4F20204216800F576
:1038F000D83041F002012160216801F002010191FC
:103900000199C0210191122102910121039103210A
:1039100004910421059101A9FFF756FD0095206946
:1039200040F400102061206900F40010009000981D
:1039300006B0BDE8B040704740F2000044F6704168
:10394000C2F20000C2F2000100780A681044086068
:103950007047000080B543F60040C4F202000168E1
:1039600041F400710160016841F480610160016807
:1039700041F480710160032000F0C6F80F2000F0D0
:1039800005F800F061F8002080BD000070B586B039
:10399000002543F640010195C4F202010A6804467D
:1039A00042F480720A60096801A801F480710191F3
:1039B0000199694600F08EF9049E002E18BF012679
:1039C00000F0A8F94DF68361B040C4F21B31A0FBB2
:1039D00001014FF0FF3000EB914140F6B81042F288
:1039E0000002C2F20000C4F2000240F2E733C0E974
:1039F0000021C0E902530561856100F023FC054602
:103A000010B1284606B070BD40F6B810C2F20000F2
:103A100000F098FC05460028F3D12D2000F036F880
:103A20000F2C0DD82D2021460022002500F040F853
:103A300040F20400C2F200000460284606B070BDE7
:103A40000125284606B070BD82B0002043F6400133
:103A50000190C4F202014A6842F480424A604A6816
:103A600002F480420192019A00900868002240F01E
:103A70008050086008680F2100F080500090009886
:103A80006FF0010002B000F013B80000002848BF3A
:103A9000704700F01F01012202FA01F11C2202EA24
:103AA000D0004EF20012CEF20002815070470000AA
:103AB00010B54EF60C5CCEF2000CDCF80030C3F30F
:103AC000022E8EF00704042C28BF0424BEF1030349
:103AD0004FF0FF3E0EFA04F438BF0023A143994093
:103AE0000EFA03F39A43114300F00F0200F1604312
:103AF0000901043A03F564436244002848BF02F117
:103B00000C03197010BD00004EF60C51CEF20001EE
:103B10000A684FF6FF031A4060F30A2242F0806001
:103B200040F0FD700860704747F20401C4F20001E4
:103B30000A6822EA000008607047000047F20401AA
:103B4000C4F200010A6810430860704747F20000A1
:103B5000C4F20000016841F0020101604EF610500D
:103B6000CEF20000016841F00401016030BF7047EF
:103B7000002804BF012070472DE9F04143F60808F2
:103B8000C4F202080446D8F8F8030D4600F0070016
:103B9000884207D288F8F853D8F8F80300F00700F5
:103BA000A84277D12068810717D5410705D5D8F8F5
:103BB000001041F4E051C8F80010010705D5D8F80D
:103BC000001041F46041C8F80010D8F80010A26855
:103BD00021F0F0011143C8F80010C00740D1D8F817
:103BE000F80300F00700A84207D988F8F853D8F87E
:103BF000F80300F00700A8424CD12068410707D520
:103C0000D8F80010E26821F4E0511143C8F8001020
:103C1000000708D5D8F80000216920F4604040EA88
:103C2000C100C8F8000000F09DF8D8F800104BF271
:103C3000D002C1F30311C0F60002515C40F224022D
:103C400020FA01F140F20400C2F200000068C2F262
:103C500000021160FFF79AFE0020BDE8F08100BF6E
:103C60006068811E022907D258F8081C89015CBFD0
:103C70000120BDE8F08111E0012807D158F8081CA7
:103C800089035CBF0120BDE8F08107E058F8081CFB
:103C9000890703D40120BDE8F08100BFD8F80010E7
:103CA00021F003010843C8F80000FFF769FC06464D
:103CB00041F28837D8F80000616800F00C00B0EBE2
:103CC000810F8CD0FFF75CFC801BB842F2D9032037
:103CD000BDE8F0810F22026043F60802C4F202023E
:103CE000136803F003034360136803F0F003836079
:103CF000136803F4E053C360D2F800C04FF4E053FC
:103D000003EADC030361D2F8F80300F0070008605F
:103D10007047000040F2240043F60801C2F20000A0
:103D2000C4F20201006809684BF2E002C1F382218B
:103D3000C0F60002515CC8407047000040F2240009
:103D400043F60801C2F20000C4F2020100680968EB
:103D50004BF2E002C1F34231C0F60002515CC840B0
:103D60007047000010B543F60404C4F20204606812
:103D700000F00C0008280BD0042819BF42F20040C4
:103D8000C0F2F40047F64000C0F27D1010BD00BF45
:103D9000206821682368490247F64001C0F27D117E
:103DA00000F03F02C3F388105CBF42F20041C0F252
:103DB000F401A1FB00010023FCF7C2FA21680222F2
:103DC000C1F3014102EB4101B0FBF1F010BD000075
:103DD000002804BF012070472DE9F04182B004465D
:103DE000007843F60006C007C4F202060CD0B068A3
:103DF00000F00C00042840F081803068800303D577
:103E00006068002800F06A81207880071BD5B068C0
:103E100010F00C0F09D0B06800F00C00082840F03A
:103E200087807068400200F183803068800703D586
:103E3000E068012840F052813068216920F0F800E4
:103E400040EAC10030602078000713D42078400792
:103E50002AD4A569002D00F03C81B06800F00C0068
:103E6000082840F0A180012D40F01081012002B00F
:103E7000BDE8F0816069002840F20000C4F24720EC
:103E800000F07E800121C0F8801EFFF779FB054617
:103E9000706F8007DAD4FFF773FB401B0228F7D955
:103EA000032002B0BDE8F081306C5FEAC0080AD49C
:103EB00000200190306C40F080503064306C00F095
:103EC00080500190019847F20007C4F2000738685B
:103ED000C00547D4386840F480703860FFF750FB65
:103EE000054600BF3868C0053CD4FFF749FB401BBE
:103EF0000228F7D9032002B0BDE8F081B06800F0D5
:103F00000C00082803D1706840023FF576AF606866
:103F1000B0F5803F07D0B0F5A02F40F09B8030680F
:103F200040F480203060306840F4803030609BE0A6
:103F3000E06800285CD00020C4F247200121016025
:103F4000FFF71EFB054600BF306880073FF574AFE2
:103F5000FFF716FB401B0228F6D9032002B0BDE88C
:103F6000F08100BFA068012805D0052854D1306F2A
:103F700040F004003067306F40F00100306755E0DA
:103F80000021C0F8801EFFF7FBFA0546706F80071E
:103F90007FF55CAFFFF7F4FA401B0228F6D9032047
:103FA00002B0BDE8F08100BF0027C4F2472700201F
:103FB0003866FFF7E5FA022D05460DD1306880011D
:103FC00040F19080FFF7DCFA401B02284FF003001D
:103FD000F4D902B0BDE8F0813068800179D5FFF7EF
:103FE000CFFA401B02284FF00300F5D9F1E700BFDC
:103FF0000020C4F2472000210160FFF7C1FA054606
:10400000306880077FF51FAFFFF7BAFA401B022820
:104010004FF00300F4D9DCE7316F002821F00101F3
:104020003167316F21F0040131677DD0FFF7A8FAC5
:10403000054641F2883700BF306F800700F1868067
:10404000FFF79EFA401BB842F6D9032002B0BDE844
:10405000F08100BF3168002821F48031316031687F
:1040600021F4802131607BD0FFF78AFA054600BF3A
:10407000306880033FF5C8AEFFF782FA401B642822
:10408000F6D9032002B0BDE8F08100BF7068E16995
:1040900000F480028A4221D1216A00F03F028A4264
:1040A0001CD147F6C071626A0140B1EB821F15D185
:1040B000A16A4FF6FF73C903994300F44032A1F59A
:1040C00080318A420AD1E16A00F07060B0EB016F82
:1040D00004D1002002B0BDE8F08100BF012002B091
:1040E000BDE8F08104F11C052FCD084340EA8210A1
:1040F000D9034FF6FF729143A1F5803140EA056084
:104100000843706001203866FFF73AFA044600BFA2
:1041100030688001DDD4FFF733FA001B02284FF02E
:104120000300F5D955E700BFFFF72AFA054641F22B
:10413000883700BF306F800708D5FFF721FA401B92
:10414000B8424FF00300F5D943E700BFB8F1000FC4
:104150003FF57FAE306C20F08050306479E600BFD0
:10416000FFF70EFA054600BF306880037FF54CAEBE
:10417000FFF706FA401B64284FF00300F4D928E744
:10418000704700007047000090F83C20012A4FF073
:10419000020254D010B580F83D200268D2F804E045
:1041A000D2F808C00C682EF07003234341F2FF746C
:1041B000C4F20004A24253600EDC40F2FF73C4F26A
:1041C00000039A4216DCB2F1804F2BD040F200433C
:1041D000C4F2000324E000BF40F2FF33C4F2010345
:1041E0009A4213DC41F60003C4F200039A4219D04C
:1041F000002313E040F60003C4F200039A4211D0FA
:1042000040F60043C4F200030AE000BF44F200039A
:10421000C4F201039A4205D040F20043C4F2010304
:104220009A4204D149682CF080031943916001211E
:10423000002280F83D1080F83C20BDE81040104678
:1042400070470000002804BF0120704710B50446E5
:1042500090F83D0028B9002084F83C00204600F08A
:104260001FF8022084F83D002068211D03F07CFA2D
:10427000012084F8460084F83E0084F83F0084F86A
:10428000400084F8410084F8420084F8430084F838
:10429000440084F8450084F83D00002010BD000073
:1042A00080B584B0006841F20001C4F20001884288
:1042B0001CD040F60001C4F20001884230D040F228
:1042C0000041C4F20001884239D10020039043F636
:1042D0004000C4F20200016841F002010160006880
:1042E00000F002000390039804B080BD002001900C
:1042F00043F64000C4F202000168002241F01001C0
:1043000001600068052100F010000190019836203E
:10431000FFF7CEFB362004B0BDE88040FFF7B6BB08
:104320000020029043F64000C4F20200016841F010
:1043300004010160006800F004000290029804B0DB
:1043400080BD000090F83D1001291CBF012070477E
:10435000022180F83D10006841F2FF72C168C4F28A
:104360000002904241F00101C1600DDC40F2FF719A
:10437000C4F20001884215DCB0F1804F2AD040F22F
:104380000041C4F2000123E040F2FF31C4F2010118
:10439000884213DC41F60001C4F20001884219D0C2
:1043A000002113E040F60001C4F20001884211D060
:1043B00040F60041C4F200010AE000BF44F20001EF
:1043C000C4F20101884205D040F20041C4F201016B
:1043D000884206D1816801F00701062904BF002048
:1043E0007047016841F00101016000207047000042
:1043F00090F83C20012A4FF0020200F0C58080B501
:1044000080F83D20D0F800C04FF67772DCF8083015
:1044100023EA0202CCF808200B684F2B28DC1F2B64
:1044200044DD202B45D0302B43D0402B40F0AE80D4
:10443000D1F804E0C968DCF82030DCF8202022F054
:104440000102CCF82020DCF8182022F0F00242EA29
:10445000011123F00A0242EA0E02CCF81810CCF83F
:104460002020DCF8081041F0470121F0300180E005
:104470006F2B27DDB3F5005F48D0B3F5805F7AD0AE
:10448000702B40F08380D1E901E3C968DCF8082093
:1044900043EA0E0322F47F4243EA01211143CCF8A0
:1044A0000810DCF8081041F0770162E00BB1102B26
:1044B0006CD1DCF8081021F07001194341F00701BC
:1044C00057E000BF502B35D0602B5FD1D1F804E00E
:1044D000C968DCF82030DCF8202022F01002CCF88B
:1044E0002020DCF8182022F4704242EA013123F047
:1044F000A00242EA0E12CCF81810CCF82020DCF80A
:10450000081041F0670121F0100132E0D1E901E328
:10451000C968DCF8082043EA0E0322F47F4243EA2C
:1045200001211143CCF80810DCF8081041F4804157
:104530001FE000BFD1F804E0C968DCF82030DCF8E7
:10454000202022F00102CCF82020DCF8182022F0F4
:10455000F00242EA011123F00A0242EA0E02CCF80C
:104560001810CCF82020DCF8081041F0570121F099
:104570002001CCF808100022012180F83D10002114
:1045800080F83C10BDE88040104670470122F3E7F8
:104590007047000070B504460068C5680669B10739
:1045A00016D515F0020113D06FF00201016101214F
:1045B00021778069800703D02046FFF7E9FF05E0F7
:1045C000204600F08FF8204600F0D0F90020207738
:1045D000700719D515F0040016D020686FF004019B
:1045E000016102212177806910F4407F04D02046C8
:1045F000FFF7CEFF06E000BF204600F073F820462C
:1046000000F0B4F900202077300717D515F0080026
:1046100014D020686FF00801016104212177C0697E
:10462000800703D02046FFF7B3FF05E0204600F0E7
:1046300059F8204600F09AF900202077F00619D5A5
:1046400015F0100016D020686FF0100101610821EC
:104650002177C06910F4407F04D02046FFF798FF0F
:1046600006E000BF204600F03DF8204600F07EF94D
:1046700000202077F00718BF15F0010002D13006A6
:1046800009D412E020686FF001010161204600F0BA
:10469000FFF9300609D515F0800006D020686FF0CC
:1046A000800101612046FFF76BFD700609D515F00A
:1046B000400006D020686FF040010161204600F004
:1046C000F1F9B00658BF70BD15F0200008D0216880
:1046D0006FF0200220460A61BDE87040FFF752BD2E
:1046E00070BD00007047000090F83C30012B04BF03
:1046F000022070474FEAB202032A00F201812DE93D
:10470000F043DFE802F0033F7FBF00BF036840F2E1
:1047100000461C6A1A6A24F0020422F001021A629E
:104720001A46D3F804C052F818EF8F6843F4806536
:10473000C4F20106B54244EA070405D1CF6824F06B
:104740000C0427F004073C430F68B54206D1D1E9B9
:1047500005582CF440762E4346EA080C2EF07306DA
:104760003743C3F804C09F614F6809695F631C62E7
:104770009F6947F008079F619F6927F004079F61C1
:10478000B2E000BF036840F200481C6A1A6A24F0D5
:10479000200422F010021A621A46D3F804C052F81C
:1047A00018EF8F6843F48065C4F20108454544EA78
:1047B000071407D1CF686FF0400624F0C00406EA62
:1047C00007163443D1F80090454506D1D1E9055686
:1047D0002CF440672E4347EA860C2EF4E64747EA5E
:1047E0000927C3F804C09F614F6809699F631C6271
:1047F0009F6947F400679F619F6927F480679F6105
:1048000071E000BF036840F200481C6A1A6A24F491
:10481000007422F480721A621A46D3F804C052F867
:104820001CEF8F6843F48065C4F20108454544EAF3
:10483000072408D1CF6840F2FF463F0224F44064C9
:1048400027EA06063443D1F80090454506D1D1E960
:1048500005562CF440572E4347EA061C2EF07307EA
:1048600047EA0907C3F804C0DF614F680969DF63DD
:104870001C62DF6947F00807DF61DF6927F0040782
:10488000DF6131E0036840F20045D3F820C01A6AC6
:1048900043F4806722F480521A621A465C6852F828
:1048A0001CEFD1F800808E68C4F20105AF4204D13C
:1048B0004D6924F4804444EA85142CF4005747EAF7
:1048C00006372EF4E64646EA08265C60DE614E684E
:1048D00009691E641F62DF6947F40067DF61DF69F1
:1048E00027F48067DF610902136819431160002112
:1048F000BDE8F043002280F83C200846704700BF26
:104900000121002280F83C2008467047002804BF9F
:104910000120704710B5044690F83D0028B90020EA
:1049200084F83C00204600F01FF8022084F83D0087
:104930002068211D02F018FF012084F8460084F849
:104940003E0084F83F0084F8400084F8410084F879
:10495000420084F8430084F8440084F8450084F859
:104960003D00002010BD00007047000070470000AF
:1049700041B1082910D0042914BF00F1410200F10F
:104980003F020BE090F83E20012A1CBF0120704737
:10499000022280F83E2013E000F140021278012A42
:1049A0001CBF012070470222082907D0042914BF28
:1049B00080F8412080F83F2002E000BF80F84020CE
:1049C000006801F01F010122036A02FA01F123EAE3
:1049D00001020262026A114341F2FF72C4F2000254
:1049E0009042016210DC40F2FF71C4F20001884283
:1049F0001CDCB0F1804F3FD040F20041C4F2000116
:104A0000884239D03DE000BF40F2FF31C4F20101DD
:104A1000884219DC41F60001C4F2000188422BD023
:104A20000021C4F2010188421AD02AE040F60001B8
:104A3000C4F2000188421FD040F60041C4F20001D8
:104A4000884219D01DE000BF44F20001C4F2010108
:104A5000884211D040F20041C4F20101884210D1D5
:104A6000416C40F2004340F48062C4F2010341F41F
:104A700000419A42416404D1816801F0070106298E
:104A800003D0016841F0010101600020704700007F
:104A9000006842F20001C4F20001884218BF70476A
:104AA000FEF74ABF70470000002804BF012070478E
:104AB00010B5044690F8410028B9002084F8400061
:104AC000204600F021F8242084F841002068C168C5
:104AD00021F40051C160204602F0ECFE206801691B
:104AE00021F490410161416921F02A014161C168CD
:104AF00041F40051C16000202021606484F841101D
:104B000084F84210606310BD016841F20000C4F2F5
:104B10000100814218BF704780B586B0002143F67E
:104B200030020191C4F20202536900F5704043F073
:104B300010035361536903F010030193019B01912A
:104B4000136843F001031360126802F0010201923E
:104B5000019A4FF4C06201920222CDE902210321A1
:104B600004910721059101A9FEF72EFC06B0BDE8CE
:104B7000804070472DE9F041044690F8410020281C
:104B80001CBF0220BDE8F0810D4600294FF0010056
:104B900000F0AA801646002A08BFBDE8F081002078
:104BA00060642120984684F84100FEF7E9FCA68461
:104BB000E684A1680646B1F5805F02D1206900282D
:104BC00062D02F460025E08C002861D018F101004A
:104BD00018D0B8F1000F37D1216808E017F8010BA1
:104BE0004860E08C0138E084E08C002851D00868EF
:104BF000000673D5002FF1D135F8020B00276FF3B3
:104C00005F20EDE7216802E00868000609D4086823
:104C1000000606D4086800065CBF08685FEA00600A
:104C2000F2D51FB117F8010B05E000BF35F8020BF4
:104C300000276FF35F204860E08C0138E084E08C4F
:104C40000028E4D125E000BF216800BF0868000605
:104C500008D4FEF795FC801B404541D82168C86800
:104C6000F4E700BF17B117F8010B04E035F8020BA9
:104C700000276FF35F204860E08C0138E084E08C0F
:104C80000028E3D105E000BF0027E08C00289DD17B
:104C90002168086840061FD4B8F1000F1ED018F133
:104CA00001000FD10868400616D40868400613D4E6
:104CB0000868400610D4086840064FF00000F1D59F
:104CC0000FE000BFFEF75CFC801B404508D8206861
:104CD000C16800684006F5D5002002E0FEF750FCF0
:104CE0000320202184F84110BDE8F0819AB00DF135
:104CF000520909F10100139009F10200129009F123
:104D00000300119009F10400109009F105000F90C3
:104D100009F106000E9009F107000D9009F1080055
:104D20000C9009F109000B9009F10A000A9009F1B1
:104D30000B00099009F10C00089009F10D00079093
:104D400009F10E00069009F10F00059009F110001D
:104D5000049009F11100039009F1120040F2D40A05
:104D600040F2DE0540F2940B029009F11300002698
:104D7000C2F2000AC2F20005C2F2000B019002E08A
:104D80000A2002F08DFE06F11100C0B22F464FF04E
:104D9000FF38F4B200F0BAFBDAF800000121A140BC
:104DA00001220023CDF8008004F0ACFA28882527E2
:104DB00043F2E3617843C0F21A01A0FB0101F8223B
:104DC000880812EA910F09F804001ED041F2111070
:104DD00000EB062140F29800C2F200000068ADF836
:104DE00066100DF166010122002304F061FDDAF87E
:104DF0000000102104F02CFADAF800002021012232
:104E00000123CDF8008004F07DFA688843F2E36165
:104E10007843C0F21A01A0FB0101F8228808C846B5
:104E2000A14412EA910F4FF0FF3489F804001DD01D
:104E300042F2111000EB062140F29800C2F200008D
:104E40000068ADF866100DF166010122002304F040
:104E50002FFDDAF80000102104F0FAF9DAF800006A
:104E6000202101220123009404F04CFAA888252770
:104E700043F2E3617843C0F21A01A0FB0101F8227A
:104E8000880812EA910F89F808001DD043F211102A
:104E900000EB062140F29800C2F200000068ADF875
:104EA00066100DF166010122002304F001FDDAF81D
:104EB0000000102104F0CCF9DAF8000020210122D2
:104EC0000123009404F01EFAE88843F2E36178437A
:104ED000C0F21A01A0FB0101F822880812EA910F22
:104EE00089F80C001DD044F2111000EB062140F2AD
:104EF0009800C2F200000068ADF866100DF166017E
:104F00000122002304F0D4FCDAF80000102104F0A0
:104F10009FF9DAF80000202101220123009404F017
:104F2000F1F9288943F2E3617843C0F21A01A0FB4A
:104F30000101F822880812EA910F89F810001DD0AB
:104F400045F2111000EB062140F29800C2F2000079
:104F50000068ADF866100DF166010122002304F02F
:104F6000A7FCDAF80000102104F072F9DAF800006A
:104F7000202101220123009404F0C4F90136F0B28B
:104F80000428C1467FF4FCAEDBF80000494600224D
:104F90000023002604F08CFCDBF8000013990022AB
:104FA000002304F085FCDBF80000129900220023A6
:104FB00004F07EFCDBF8000011990022002304F0CD
:104FC00077FCDBF8000010990022002304F070FC4D
:104FD000DBF800000F990022002304F069FCDBF8E5
:104FE00000000E990022002304F062FCDBF80000B0
:104FF0000D990022002304F05BFCDBF800000C9903
:105000000022002304F054FCDBF800000B9900227E
:10501000002304F04DFCDBF800000A990022002375
:1050200004F046FCDBF8000009990022002304F09C
:105030003FFCDBF8000008990022002304F038FC54
:10504000DBF8000007990022002304F031FCDBF8B4
:10505000000006990022002304F02AFCDBF800007F
:1050600005990022002304F023FCDBF800000499DA
:105070000022002304F01CFCDBF80000039900224E
:10508000002304F015FCDBF8000002990022002345
:1050900004F00EFCDBF8000001990022002304F06C
:1050A00007FCDAF80000402104F0D2F8DAF800003A
:1050B000802101220123009404F024F960E600001D
:1050C0008AB007A8811C0691011D0591811D40F23F
:1050D000D40740F2E80948F6381B40F294060491E0
:1050E00000F108010A304FF0000AC2F200074FF049
:1050F000FF38C2F20009C0F2410B0DF12605C2F2E1
:1051000000060391029009E00AF1010A5FFA8AF0B1
:10511000022800F0F1800A2002F0C2FC0AF16100CE
:10512000C0B25FFA8AF400F0F1F938684FF4807188
:10513000A14001220023CDF8008004F0E3F8B9F883
:10514000000000EBC0004000A0FB0B0101F0FE00DE
:105150001E2807A801551DD346F2111000EB0A21A5
:1051600040F29800C2F200000068ADF8261029460F
:105170000022002304F09CFB38684FF4806104F0A7
:1051800067F838684FF4006101220123CDF80080F0
:1051900004F0B8F8B9F8020000EBC0004000A0FB32
:1051A0000B0107A8044401F0FE001E28A1701DD3C6
:1051B00047F2111000EB0A2140F29800C2F2000001
:1051C0000068ADF8261029460022002304F070FB89
:1051D00038684FF4806104F03BF838684FF40061A0
:1051E00001220123CDF8008004F08CF8B9F8040006
:1051F00000EBC0004000A0FB0B0101F0FE001E28E8
:1052000021711FD348F21110CFF6FF7000EB0A2175
:1052100040F29800C2F200000068ADF8261029465E
:105220000022002304F044FB38684FF4806104F04E
:105230000FF838684FF4006101220123CDF8008097
:1052400004F060F8B9F8060000EBC0004000A0FBD5
:105250000B0101F0FE001E28A1711FD349F21110AD
:10526000CFF6FF7000EB0A2140F29800C2F2000076
:105270000068ADF8261029460022002304F018FB30
:1052800038684FF4806103F0E3FF38684FF4006141
:1052900001220123CDF8008004F034F8B9F80800A9
:1052A00000EBC0004000A0FB0B0101F0FE001E2837
:1052B0002172FFF429AF4AF21110CFF6FF7000EB14
:1052C0000A2140F29800C2F200000068ADF82610F2
:1052D00029460022002304F0EBFA38684FF480617D
:1052E00003F0B6FF38684FF4006101220123CDF8C6
:1052F000008004F007F807E7069C3068214600228A
:1053000000234FF0000A04F0D3FA3068214600224F
:10531000002304F0CDFA059C3068214600220023CA
:1053200004F0C6FA306821460022002304F0C0FAD7
:10533000049C306821460022002304F0B9FA30684A
:1053400021460022002304F0B3FA039C3068214672
:105350000022002304F0ACFA30682146002200232A
:1053600004F0A6FA029C306821460022002304F0D3
:105370009FFA306821460022002304F099FA386829
:105380004FF4805103F064FF38684FF4005101225C
:105390000123CDF8008003F0B5FFBCE6F0B581B085
:1053A00040F60046C4F202060446A6F500673846F9
:1053B00004212246FEF7DEF806F5806528468021A6
:1053C0002246FEF7D7F828464FF400712246FEF732
:1053D000D1F828464FF480612246FEF7CBF83846D4
:1053E00002212246FEF7C6F828464FF48051224695
:1053F000FEF7C0F828464FF480412246FEF7BAF87F
:1054000028464FF400412246FEF7B4F838464FF4E0
:1054100000612246FEF7AEF838464FF4805122462E
:10542000FEF7A8F838464FF480412246FEF7A2F86E
:1054300038464FF400412246FEF79CF830464FF4C0
:1054400000712246FEF796F830464FF480612246FE
:10545000FEF790F830464FF480512246FEF78AF866
:1054600030464FF400512246FEF784F830464FF4A0
:1054700080412246FEF77EF830464FF40041224636
:10548000FEF778F8A6F58067384680212246FEF7B9
:1054900071F838464FF480712246FEF76BF83046BB
:1054A00001212246FEF766F838464FF40061224695
:1054B000FEF760F8304608212246FEF75BF83046DA
:1054C00002212246FEF756F8304640212246FEF7DA
:1054D00051F8304610212246FEF74CF828460821A4
:1054E0002246FEF747F8284602212246FEF742F8F8
:1054F000284640212246FEF73DF828461021224644
:1055000001B0BDE8F040FEF735B8000070B55F2887
:1055100000F00F064AD8701E032800F2A580DFE8CD
:1055200010F00500AB00F100310100BF41F20004B2
:10553000C4F2020420464FF480710022FEF71AF8EC
:1055400020464FF400610022FEF714F820464FF485
:1055500000510022FEF70EF8A4F5406528464FF4EE
:1055600080610022FEF706F828464FF40051002221
:10557000FEF700F8A4F5806528464FF480710022FC
:10558000FDF7F8FF28464FF400610022FDF7F2FF17
:10559000A4F580504FF480710022FDF7EBFFA4F5D5
:1055A0000064204640210022A4E000BF022E23D048
:1055B000012E43D141F20004C4F20204A4F50060BC
:1055C0004FF480510022FDF7D5FFA4F580652846F1
:1055D00004210022FDF7CEFF284620210022FDF7FE
:1055E000C9FF204604210022FDF7C4FF20462021E8
:1055F0000022FDF7BFFF27E041F20004C4F20204DD
:10560000A4F500604FF480510122FDF7B3FFA4F52B
:105610008065284604210122FDF7ACFF28462021A1
:105620000122FDF7A7FF204604210122FDF7A2FF7A
:10563000204620210122FDF79DFF05E04BF6155085
:10564000C0F6000002F002FA40F2DC03C2F20003EE
:1056500040F2D47003F10C01C2F2000005225E702A
:10566000BDE87040FCF766BF4BF61550C0F6000071
:1056700002F0ECF9CCE000BF41F20004C4F20204F5
:1056800020464FF480710122FDF774FF20464FF44D
:1056900000610022FDF76EFF20464FF40051012209
:1056A000FDF768FFA4F5406528464FF480610022AD
:1056B000FDF760FF28464FF400510122FDF75AFF25
:1056C000A4F5806528464FF480710022FDF752FF53
:1056D00028464FF400610122FDF74CFFA4F58050ED
:1056E0004FF480710022FDF745FFA4F500642046C9
:1056F00040210122FDF73EFF20464FF400710022B9
:1057000084E000BF41F20004C4F2020420464FF4DA
:1057100080710022FDF72EFF20464FF40061012228
:10572000FDF728FF20464FF400510022FDF722FF2D
:10573000A4F5406528464FF480610122FDF71AFF69
:1057400028464FF400510022FDF714FFA4F58065B0
:1057500028464FF480710122FDF70CFF28464FF4D4
:1057600000610022FDF706FFA4F580504FF4807120
:105770000122FDF7FFFEA4F500642046402100222F
:105780003EE000BF41F20004C4F2020420464FF4A0
:1057900080710122FDF7EEFE20464FF400610122E8
:1057A000FDF7E8FE20464FF400510122FDF7E2FE2E
:1057B000A4F5406528464FF480610122FDF7DAFE2A
:1057C00028464FF400510122FDF7D4FEA4F5806570
:1057D00028464FF480710122FDF7CCFE28464FF495
:1057E00000610122FDF7C6FEA4F580504FF48071E0
:1057F0000122FDF7BFFEA4F50064204640210122EE
:10580000FDF7B8FE20464FF400710122FDF7B2FE0D
:1058100040F2DC01C2F2000140F28C7001F8026B30
:10582000C2F200000522BDE87040FCF783BE000014
:10583000FEE7000070B50368044653F8140F4007F4
:1058400011D40E46481C29D086BB00BF18684005FD
:1058500027D4FDF795FE236853F8140F400737D57A
:1058600018684007F2D5002070BD00BF18684007D7
:10587000F9D41868400514D418684007F3D41868A0
:1058800040050ED418684007EDD41868400508D4C8
:10589000186840074FF0000048BF70BD1868400509
:1058A000E4D56FF480601860042012E0154603E030
:1058B00053F8140F4007D6D418684005F1D4FDF70B
:1058C0005FFE401B2368B042F2D958694007EFD40D
:1058D000202000212022216384F83D2084F83E10FE
:1058E000226C10432064012084F83C1070BD00003D
:1058F0002DE9F041054600681E46144601F47F027A
:1059000001338FB242D0DDF81880B2F5803F40F00D
:10591000878040693840C01BB0FA80F04009A0423F
:1059200040F0C8804EB924E040693840C01BB0FA4E
:1059300080F04009A04240F0BD80FDF721FEA0EBC1
:1059400008012868B142EFD941693940C91BB1FA51
:1059500081F14909A142E7D19BE000BF406938408D
:10596000C01BB0FA80F04009A0424FF0000040F0A8
:10597000A280FDF705FE286841693940C91BB1FACC
:1059800081F14909A142E9D183E000BFB2F5803F2E
:1059900024D100BF41693940C91BB1FA81F14909DD
:1059A000A14240F0878041693940C91BB1FA81F1B9
:1059B0004909A14240F07E8041693940C91BB1FAD2
:1059C00081F14909A14275D141693940C91BB1FA38
:1059D00081F14909A142DDD06CE000BF8169394005
:1059E000C91BB1FA81F14909A14263D181693940EA
:1059F000C91BB1FA81F14909A1425BD181693940E2
:105A0000C91BB1FA81F14909A14253D181693940D9
:105A1000C91BB1FA81F14909A142DFD04AE000BFB8
:105A200080693840C01BB0FA80F04009A04241D1E3
:105A300046B923E080693840C01BB0FA80F04009C5
:105A4000A04237D1FDF79CFDA0EB08012868B142C8
:105A5000F0D981693940C91BB1FA81F14909A142E4
:105A6000E8D116E080693840C01BB0FA80F04009E8
:105A7000A0424FF0000018BFBDE8F081FDF780FDA7
:105A8000286881693940C91BB1FA81F14909A142ED
:105A9000E8D100202021286385F83D1085F83E00DC
:105AA000296C41F02001296485F83C000120BDE803
:105AB000F08100BF0020BDE8F0810000F0B581B0AA
:105AC000044600681D4643698FB203EA0701B942E4
:105AD00002D1002001B0F0BD4169164601323FD02D
